:020000040000FA
:10000000D00B002021030000290300002B03000077
:100010002D0300002F03000031030000000000004A
:10002000000000000000000000000000330300009A
:100030003503000000000000370300008D3C000085
:100040003B0300003D0300003F03000041030000AC
:1000500043030000F540000047030000490300008F
:100060004B0300004D0300004F030000510300004C
:10007000530300005503000057030000590300001C
:100080005B0300005D0300005F030000553E0000BD
:1000900063030000650300006703000069030000BC
:1000A0006B0300006D0300006F030000710300008C
:1000B000730300007503000077030000790300005C
:1000C0007B0300007D0300007F030000810300002C
:1000D00083030000850300008703000089030000FC
:1000E0008B0300008D0300008F03000091030000CC
:1000F000930300009503000097030000990300009C
:100100009B0300009D0300009F030000A10300006B
:10011000A3030000A5030000A7030000A90300003B
:10012000AB030000AD030000AF030000B10300000B
:10013000B3030000B5030000B7030000B9030000DB
:10014000BB030000BD030000BF030000D903000093
:100150000000000000000000DB030000DD030000E1
:10016000DF030000E103000000000000E3030000E3
:10017000E5030000E7030000E9030000EB030000D3
:10018000ED030000EF030000F1030000F3030000A3
:10019000F5030000F7030000F9030000FB03000073
:1001A000FD030000FF030000010400000304000041
:1001B0000504000007040000090400000B0400000F
:1001C0000D0400000F0400001104000013040000DF
:1001D0001504000017040000190400001B040000AF
:1001E0001D0400001F04000021040000230400007F
:1001F0002504000027040000290400002B0400004F
:1002000000F002F800F065F80AA090E8000C8244C3
:100210008344AAF10107DA4501D100F05AF8AFF2A0
:10022000090EBAE80F0013F0010F18BFFB1A43F0D4
:100230000103184738660000586600000A444FF072
:10024000000C10F8013B13F0070408BF10F8014B35
:100250001D1108BF10F8015B641E05D010F8016B7A
:10026000641E01F8016BF9D113F0080F1EBF10F8DE
:10027000014BAD1C0C1B09D16D1E58BF01F801CB01
:10028000FAD505E014F8016B01F8016B6D1EF9D584
:100290009142D6D370470000002300240025002699
:1002A000103A28BF78C1FBD8520728BF30C148BFD9
:1002B0000B6070471FB505F0E1FE00F039F904004E
:1002C0000020002105F02EF9401C60601FBD10B514
:1002D00010BD00F039F91146FFF7ECFF04F032FFD2
:1002E00000F057F903B4FFF7F2FF03BC00F09AF9EE
:1002F0000138FDD170470000EFF3108072B67047EF
:10030000EFF310807047EFF3108062B6704730BF94
:10031000704780F311887047EFF311807047000039
:100320004548804745480047FEE7FEE7FEE7FEE711
:10033000FEE7FEE7FEE7FEE7FEE7FEE7FEE7FEE795
:10034000FEE7FEE7FEE7FEE7FEE7FEE7FEE7FEE785
:10035000FEE7FEE7FEE7FEE7FEE7FEE7FEE7FEE775
:10036000FEE7FEE7FEE7FEE7FEE7FEE7FEE7FEE765
:10037000FEE7FEE7FEE7FEE7FEE7FEE7FEE7FEE755
:10038000FEE7FEE7FEE7FEE7FEE7FEE7FEE7FEE745
:10039000FEE7FEE7FEE7FEE7FEE7FEE7FEE7FEE735
:1003A000FEE7FEE7FEE7FEE7FEE7FEE7FEE7FEE725
:1003B000FEE7FEE7FEE7FEE7FEE7FEE7FEE7FEE715
:1003C000FEE7FEE7FEE7FEE7FEE7FEE7FEE7FEE705
:1003D000FEE7FEE7FEE7FEE7FEE7FEE7FEE7FEE7F5
:1003E000FEE7FEE7FEE7FEE7FEE7FEE7FEE7FEE7E5
:1003F000FEE7FEE7FEE7FEE7FEE7FEE7FEE7FEE7D5
:10040000FEE7FEE7FEE7FEE7FEE7FEE7FEE7FEE7C4
:10041000FEE7FEE7FEE7FEE7FEE7FEE7FEE7FEE7B4
:10042000FEE7FEE7FEE7FEE7FEE7FEE704480549D4
:10043000034A054B70470000353E000001020000F2
:10044000D0090020D00B0020D009002010B50446B0
:1004500000F05AF80068005D000704D5DF2C02D0D8
:10046000A4F1200010BD204610BD40EA010370B584
:100470009B072ED14FF00136042A2AD308C810C991
:100480009D1B9D43121F15EAC61517D0D8B2E1B2C5
:10049000401A50EA056110D198B2A1B2401A50EA50
:1004A00005410AD123F07F4024F07F41401A50EAF1
:1004B000052102D1180EA0EB146070BDA342DBD061
:1004C00018BA21BA884201D9012070BD4FF0FF301F
:1004D00070BD0AB9002070BD10F8013B11F8014B46
:1004E00063B1A3420AD1521E08D010F8013B11F8A3
:1004F000014B1BB1A34201D1521EEDD1181B70BD9F
:10050000704770477047000010B500F011F8001DEB
:1005100010BD00BF1150000010B500F00DF80068CC
:1005200010BD10B5044600F007F8046010BD0000CF
:10053000004870478C090020004870476C09002073
:10054000004870476C0900207546FFF7F9FFAE467A
:1005500005006946534620F00700854618B020B5CF
:10056000FFF764FFBDE820404FF000064FF00007A2
:100570004FF000084FF0000B21F00701AC46ACE84B
:10058000C009ACE8C009ACE8C009ACE8C0098D46B8
:10059000704710B50446AFF300802046BDE8104018
:1005A000FFF7A0BE4FF0013C50F8042B51F8043B7C
:1005B0009A4221D1A2EB0C03934313EACC1317D137
:1005C00050F8042B51F8043B9A4215D1A2EB0C03CE
:1005D000934313EACC130BD150F8042B51F8043B8E
:1005E0009A4209D1A2EB0C03934313EACC13DBD05C
:1005F0004FF00000704700BFD01A01BAB1FA81F184
:1006000001F0180122FA01F0CB40C1F12001DBB268
:10061000C0B2C01A2CFA01F3D11A914311EAC311E6
:10062000E6D1704701491820ABBEFEE72600020064
:100630007047002100E0491C8142FCD37047000054
:1006400010B5FE48007800287ED0DF220121182056
:1006500001F086F9FA490870FA480078002874D049
:10066000F948FA490978425C0521222001F078F91D
:10067000F349087080220621222001F071F9F04927
:100680000870F3480088FFF7D4FFEF48F149097874
:10069000425C0521222001F063F9E94908704022FB
:1006A0000621222001F05CF9E5490870E84800883D
:1006B000FFF7BFFF40220521222001F051F9E04958
:1006C000087020220621222001F04AF9DC49087036
:1006D000DF480088FFF7ADFFDB48DF490978425C5F
:1006E0000521222001F03CF9D5490870102206218D
:1006F000222001F035F9D2490870D5480088FFF76B
:1007000098FFD148D5490978425C0521222001F0A3
:1007100027F9CB49087008220621222001F020F990
:10072000C7490870CA480088FFF783FF40220521A7
:10073000222001F015F9C249087004220621222066
:1007400001F00EF9BE4901E0E3E02FE00870C04877
:100750000088FFF76EFFBC48C1490978425C05215B
:10076000222001F0FDF8B64908700222062122205D
:1007700001F0F6F8B2490870B5480088FFF759FF54
:10078000B148B8490978425C0521222001F0E8F817
:10079000AB49087001220621222001F0E1F8A849A6
:1007A0000870AB480088FFF744FF2FE2AE4800789E
:1007B00060B100220521222001F0D2F8A049087082
:1007C000A3490988C800FFF734FF1FE29E489F49EC
:1007D0000978425C0521222001F0C2F8984908708E
:1007E00080220621222001F0BBF895490870984824
:1007F0000088FFF71EFF944896490978425C05215E
:10080000222001F0ADF88E490870402206212220F6
:1008100001F0A6F88A4908708D480088FFF709FFA3
:1008200040220521222001F09BF8854908702022F2
:100830000621222001F094F881490870844800883C
:10084000FFF7F7FE804884490978425C05212220A1
:1008500001F086F87A49087010220621222001F062
:100860007FF8774908707A480088FFF7E2FE7648FB
:100870007A490978425C0521222001F071F870491B
:10088000087008220621222001F06AF86C490870DD
:100890006F480088FFF7CDFE40220521222001F09D
:1008A0005FF86749087004220621222001F058F8F9
:1008B0006349087066480088FFF7BBFE62486849D4
:1008C0000978425C0521222001F04AF85C49087051
:1008D00002220621222001F043F8594908705C48A1
:1008E0000088FFF7A6FE58485E490978425C05215A
:1008F000222001F035F852490870012206212220F9
:1009000001F02EF84E49087051480088FFF791FE1B
:100910007CE1FB220121182001F022F848490870EF
:100920004848007800287DD0504848490978425C02
:100930000521222001F014F8414908700122062106
:10094000222001F00DF83E49087041480088FFF769
:1009500070FE46483F490978425C0521222000F09C
:10096000FFFF3749087002220621222000F0F8FF1D
:100970003349087036480088FFF75BFE40220521A6
:10098000222000F0EDFF2E490870042206212220CB
:1009900000F0E6FF2A4908702D480088FFF749FE5D
:1009A00032482D490978425C0521222000F0D8FF09
:1009B0002349087008220621222000F0D1FF204997
:1009C000087023480088FFF734FE28482349097837
:1009D000425C0521222000F0C3FF19490870102253
:1009E0000621222000F0BCFF154908701848008835
:1009F000FFF71FFE40220521222000F0B1FF104921
:100A0000087020220621222000F0AAFF0C4908705D
:100A10000F480088FFF70DFE144811490978425C21
:100A2000052100E040E0222000F09AFF0449087010
:100A300040220621222000F093FF19E090000020C0
:100A400000000020A4000020D4000020700000203E
:100A5000940000207100002072000020730000202C
:100A6000740000207500002092000020C3000020C8
:100A70006749087067480088FFF7DBFD66486749EB
:100A80000978425C0521222000F06AFF6049087065
:100A900080220621222000F063FF5D4908705D4836
:100AA0000088FFF7C6FDB1E05D48007860B1002224
:100AB0000521222000F054FF554908705549098846
:100AC000C800FFF7B6FDA1E0534856490978425CDB
:100AD0000521222000F044FF4D4908700122062123
:100AE000222000F03DFF4A4908704A480088FFF77D
:100AF000A0FD49484C490978425C0521222000F0BC
:100B00002FFF4349087002220621222000F028FF0F
:100B10003F4908703F480088FFF78BFD40220521C0
:100B2000222000F01DFF3A490870042206212220ED
:100B300000F016FF3649087036480088FFF779FD47
:100B400035483A490978425C0521222000F008FF27
:100B50002F49087008220621222000F001FF2C49AD
:100B600008702C480088FFF764FD2B48304909784D
:100B7000425C0521222000F0F3FE25490870102276
:100B80000621222000F0ECFE21490870214800884F
:100B9000FFF74FFD40220521222000F0E1FE1C4915
:100BA000087020220621222000F0DAFE1849087081
:100BB00018480088FFF73DFD17481E490978425C38
:100BC0000521222000F0CCFE1149087040220621A8
:100BD000222000F0C5FE0E4908700E480088FFF77D
:100BE00028FD0D480D490978425C0521222000F0BE
:100BF000B7FE0749087080220621222000F0B0FECF
:100C00000349087003480088FFF713FD10BD00007A
:100C10000000002094000020C30000207500002088
:100C2000920000207000002071000020720000205F
:100C3000730000207400002010B5AD480078002833
:100C40007DD0BF220121182000F08AFEA94908703A
:100C5000A948AA490978425C0521222000F080FEBB
:100C6000A449087080220621222000F079FEA149C3
:100C70000870A3480088FFF7DCFC9F48A149097869
:100C8000425C0521222000F06BFE9A490870402248
:100C90000621222000F064FE9649087098480088DA
:100CA000FFF7C7FC40220521222000F059FE9149A0
:100CB000087020220621222000F052FE8D49087083
:100CC0008F480088FFF7B5FC8B488F490978425C54
:100CD0000521222000F044FE8649087010220621DA
:100CE000222000F03DFE8349087085480088FFF708
:100CF000A0FC814885490978425C0521222000F04A
:100D00002FFE7C49087008220621222000F028FED0
:100D1000784908707A480088FFF78BFC402205214B
:100D2000222000F01DFE73490870042206212220B3
:100D300000F016FE6F4908707148008800E02CE052
:100D4000FFF777FC6C4872490978425C0521222044
:100D500000F006FE6749087002220621222000F0FA
:100D6000FFFD6449087066480088FFF762FC62482E
:100D700068490978425C0521222000F0F1FD5D49B7
:100D8000087001220621222000F0EAFD594908706E
:100D90005B480088FFF74DFCA8E0FD2201211820E8
:100DA00000F0DEFD534908705B4854490978425C05
:100DB0000521222000F0D4FD4E49087001220621B1
:100DC000222000F0CDFD4B4908704D480088FFF708
:100DD00030FC51484B490978425C0521222000F043
:100DE000BFFD4449087002220621222000F0B8FD10
:100DF0004049087042480088FFF71BFC402205214B
:100E0000222000F0ADFD3B4908700422062122207B
:100E100000F0A6FD3749087039480088FFF709FC43
:100E20003D4839490978425C0521222000F098FDAF
:100E30003049087008220621222000F091FD2D493A
:100E400008702F480088FFF7F4FB33482F490978D2
:100E5000425C0521222000F083FD26490870102203
:100E60000621222000F07CFD2249087024480088D9
:100E7000FFF7DFFB40220521222000F071FD1D4914
:100E8000087020220621222000F06AFD194908700E
:100E90001B480088FFF7CDFB1F481D490978425CBD
:100EA0000521222000F05CFD124908704022062135
:100EB000222000F055FD0F49087011480088FFF707
:100EC000B8FB154813490978425C0521222000F03F
:100ED00047FD0849087080220621222000F040FDCD
:100EE0000449087006480088FFF7A3FB10BD000006
:100EF0009000002000000020D40000205E000020B0
:100F0000940000205F0000206000002061000020AD
:100F10006200002063000020C300002010B59D483F
:100F2000007800287ED0EF220121182000F018FD63
:100F30009949087099489A490968425C052122201C
:100F400000F00EFD9449087040220621222000F096
:100F500007FD9149087093480088FFF76AFB8F48A6
:100F600091490968425C0521222000F0F9FC8A4978
:100F7000087020220621222000F0F2FC8649087029
:100F800088480088FFF755FB40220521222000F009
:100F9000E7FC8149087010220621222000F0E0FCC5
:100FA0007D4908707F480088FFF743FB7B487F49F5
:100FB0000968425C0521222000F0D2FC76490870C5
:100FC00008220621222000F0CBFC734908707548E6
:100FD0000088FFF72EFB714875490968425C0521BE
:100FE000222000F0BDFC6C4908700422062122205A
:100FF00000F0B6FC684908706A480088FFF719FBE2
:1010000066486C490968405C40F080020521222056
:1010100000F0A6FC6049087002220621222000F0A0
:101020009FFC00E01BE05C4908705E480088FFF709
:1010300000FB5A4860490968425C0521222000F003
:101040008FFC5549087001220621222000F088FCFF
:101050005149087053480088FFF7EBFA98E0F722EF
:101060000121182000F07CFC4B49087053484C4982
:101070000968425C0521222000F072FC4649087094
:1010800001220621222000F06BFC434908704548EC
:101090000088FFF7CEFA494843490968425C0521B8
:1010A000222000F05DFC3C4908700222062122202B
:1010B00000F056FC384908703A480088FFF7B9FA42
:1010C00040220521222000F04BFC33490870042205
:1010D0000621222000F044FC2F4908703148008886
:1010E000FFF7A7FA354831490968425C05212220FB
:1010F00000F036FC2849087008220621222000F062
:101100002FFC2549087027480088FFF792FA2B48E2
:1011100027490968405C40F080020521222000F048
:101120001FFC1D49087010220621222000F018FC27
:10113000194908701B480088FFF77BFA1F481D49B2
:101140000968425C0521222000F00AFC124908705F
:1011500020220621222000F003FC0F4908701148CC
:101160000088FFF766FA154813490968425C0521B3
:10117000222000F0F5FB08490870402206212220B9
:1011800000F0EEFB0449087006480088FFF751FAAA
:1011900010BD00009000002000000020D4000020BE
:1011A00078000020940000207C00002080000020B7
:1011B00084000020880000208C000020C300002054
:1011C00010B5FE220121182000F0CAFBAD490870BD
:1011D000AD48007800287DD07F220121182000F042
:1011E000BFFBA8490870A948A9490978425C0521B4
:1011F000222000F0B5FBA34908708022062122209E
:1012000000F0AEFB9F490870A2480088FFF711FA72
:101210009E48A1490978425C0521222000F0A0FBEC
:101220009849087040220621222000F099FB954938
:10123000087098480088FFF7FCF940220521222019
:1012400000F08EFB8F49087020220621222000F03A
:1012500087FB8C4908708F480088FFF7EAF98B48B4
:101260008E490978425C0521222000F079FB8549EE
:10127000087010220621222000F072FB81490870BC
:1012800084480088FFF7D5F9804885490978425C91
:101290000521222000F064FB7A490870082206210B
:1012A000222000F05DFB774908707A480088FFF73C
:1012B000C0F940220521222000F052FB714908703C
:1012C00004220621222000F04BFB6E490870714871
:1012D000008800E02CE0FFF7ACF96C487149097810
:1012E000425C0521222000F03BFB66490870022287
:1012F0000621222000F034FB62490870654800880E
:10130000FFF797F9614868490978425C0521222076
:1013100000F026FB5B49087001220621222000F024
:101320001FFB584908705B480088FFF782F9A8E066
:10133000FE220121182000F013FB524908705B487F
:1013400053490978425C0521222000F009FB4D49F0
:10135000087001220621222000F002FB4949087092
:101360004C480088FFF765F950484B490978425CC2
:101370000521222000F0F4FA4249087002220621D9
:10138000222000F0EDFA3F49087042480088FFF73C
:1013900050F940220521222000F0E2FA3949087074
:1013A00004220621222000F0DBFA36490870394871
:1013B0000088FFF73EF93D4838490978425C05212D
:1013C000222000F0CDFA2F490870082206212220A1
:1013D00000F0C6FA2B4908702E480088FFF729F95B
:1013E00032482F490978425C0521222000F0B8FAE2
:1013F0002449087010220621222000F0B1FA214968
:10140000087024480088FFF714F9402205212220A3
:1014100000F0A6FA1B49087020220621222000F0C5
:101420009FFA184908701B480088FFF702F91F4807
:101430001C490978425C0521222000F091FA1149EB
:10144000087040220621222000F08AFA0D49087017
:1014500010480088FFF7EDF8144813490978425CFA
:101460000521222000F07CFA06490870802206211E
:10147000222000F075FA0349087006480088FFF73B
:10148000D8F810BD0000002090000020D4000020FB
:101490006700002094000020680000206900002000
:1014A0006A0000206B0000206C000020C3000020B8
:1014B00010B50220FEF71CFF0C4CA06910F0010FC4
:1014C000FBD1E06910F00C0F0ED1094802F092FB3D
:1014D0000220FEF70DFFA06910F0010FFBD1E069BB
:1014E00010F00C0008BF10BD022010BD00F00A4033
:1014F000005800F02DE9F05FDFF848810646D8F883
:10150000180010F0010FFAD18809C8F80400C1F3DF
:101510008300C8F80800DFF83091DFF830A19508A3
:101520004FF0000B67D0C809012101FA00F0C74352
:10153000DAF8001046480140A1F18050B0F5A02033
:1015400002BFDAF8000080B2002813D10A20FEF7AB
:10155000CFFE0320C9F8FC000A20FEF7C9FE3D4873
:10156000C0F8C0720A20FEF7C3FEC9F8FCB00A201A
:10157000FEF7BEFE3068C8F814000A20FEF7B8FE79
:10158000D8F8184014F0010FFAD114F0100F24D03D
:10159000DAF800102E480140A1F18050B0F5A020EB
:1015A00002BFDAF8000080B2002813D10A20FEF74B
:1015B0009FFE0320C9F8FC000A20FEF799FE25488B
:1015C000C0F8C0B20A20FEF793FEC9F8FCB00A20AA
:1015D000FEF78EFE2046BDE8F09F6D1E06F1040664
:1015E00009D0D8F808000028A2D1D8F80400401C7F
:1015F000C8F804009CE7DAF8001015480140A1F192
:101600008050B0F5A02002BFDAF8000080B20028B8
:1016100013D10A20FEF76CFE0320C9F8FC000A2053
:10162000FEF766FE0B48C0F8C0B20A20FEF760FE67
:10163000C9F8FCB00A20FEF75BFED8F81800BDE838
:10164000F09F000000F00A4000D00F4000E00F4083
:101650000000FF7000E00A400B4B4FEA911CC3F8FA
:1016600004C0C1F383019960910808BF70475A69AB
:1016700040F8042B491E08BF70479A68002AF6D12B
:101680005A68521C5A60F2E700F00A40D0F8003461
:1016900012F0010F14BF0B438B43C0F8003412F05B
:1016A000020FD0F8202414BF114322EA0101C0F830
:1016B000201470472DE9F00301264FF0000C03259C
:1016C000C2F3411706FA0CF40C4211D0D0F8C48FC3
:1016D0004FEA4C0405FA04F928EA0908C0F8C48F57
:1016E000D0F8C48F07FA04F448EA0404C0F8C44FE1
:1016F0000CF1010C0CF0FF0CBCF1080FE2D3D0F898
:1017000000C512F0010F14BF4CEA010C2CEA010CC9
:10171000C0F800C5D0F804C512F0020F14BF4CEA9F
:10172000010C2CEA010CC0F804C5D0F808C512F071
:10173000040F14BF4CEA010C2CEA010CC0F808C5D8
:10174000D0F818C512F0080F14BF4CEA010C2CEAAF
:10175000010CC0F818C512F0100FD0F83C2514BFCA
:101760000A438A43C0F83C25D0F80C2513F0010F3A
:1017700014BF0A438A43C0F80C25D0F8102513F093
:10178000020F14BF0A438A43C0F81025D0F814256D
:1017900013F0040F14BF0A438A43C0F81425D0F88D
:1017A0001C2513F0080F14BF0A438A43C0F81C25F8
:1017B000D0F8442513F4007F14BF0A438A43C0F8CD
:1017C0004425D0F8402513F4407F14BF0A438A43D0
:1017D000C0F84025D0F82825002B0CBF114322EA81
:1017E0000101C0F82815BDE8F00370470E4AC0F3A8
:1017F0000741D26E01238B401A420C4A1ABF02EBFA
:10180000C101496852F83110020AD1F82C354FF065
:101810000F0C0CFA02FC00F00F0023EA0C039040BE
:101820001843C1F82C05704700E00F40906300009A
:1018300050F82100704730B50C4605460022FFF7EE
:1018400025FF21462846BDE8304008230122FFF746
:1018500031BF30B50C46054608230122FFF72AFFA9
:1018600021462846BDE830400122FFF70FBF30B5C2
:101870000C4605460222FFF709FF21462846BDE82F
:10188000304009230122FFF715BF30B50C4605464D
:101890000222FFF7FBFE21462846BDE83040082320
:1018A0000122FFF707BF30B50C4605460222FFF7BD
:1018B000EDFE21462846BDE8304008230122FFF70F
:1018C000F9BE30B50C4605460222FFF7DFFE214681
:1018D0002846BDE8304008230122FFF7EBBE000098
:1018E0002DE9F04104460E4600BF1C4800F078F890
:1018F0000028FAD100222146184800F0B9F83146F4
:10190000164800F077F80721144800F06FF800BF80
:10191000124800F05FF80028FAD1104800F071F882
:10192000C7B2C820FEF785FE012221460B4800F011
:101930009FF80721094800F059F800BF074800F058
:1019400049F80028FAD1054800F052F8C5B2C8207D
:10195000FEF76FFE2846BDE8F0810000000002405F
:101960002DE9F04104460F46154600BF184800F027
:1019700037F80028FAD100222146154800F078F8FF
:101980003946134800F036F80321114800F02EF8CC
:1019900000BF0F4800F024F80028FAD10C4800F0EE
:1019A00030F8C6B229460A4800F024F80521084854
:1019B00000F01CF800BF064800F012F80028FAD129
:1019C000034800F01EF8C6B23046BDE8F0810000C2
:1019D00000000240406810F0400018BF012070472E
:1019E000406810F0010018BF012070474160704747
:1019F0008068704781607047016A41F010010162A0
:101A00007047406810F0010F05D110F0120F1CBF95
:101A100000F01C007047002070470000036A43F08C
:101A200010030362002A14BF0E4A0F4A02EB82031E
:101A300001EB830302EB820292005B1EB3FBF2F226
:101A4000521EC260D0F8C02F12F0010F08BF7047BD
:101A5000064A1144521CB1FBF2F1491E41F08001CB
:101A6000C1607047801A0600A08601007F473701D9
:101A700042EA4101016070471649042804BF086822
:101A800040F4803018D0052804BF086840F40030C6
:101A900012D0062812D00F2815D0102838BF704752
:101AA000103800F01F01012202FA01F142090A4830
:101AB00050F822000160704708607047086840F4E1
:101AC0008020086070474FF0E020016941F002017A
:101AD0000161704724ED00E0DC64000010B5FEF702
:101AE00012FC002818BF012010BD000070B50021B5
:101AF0002220FFF7F5FEC043C4490870084600786D
:101B0000C34909784840C3490870C3480078C349AD
:101B10000978884209D1C048007830B90120C0490D
:101B200008700020BF49087014E0BF480078BF4922
:101B30000978884209D1BC48007830B90020B849FA
:101B400008700120B749087004E00020B44908700B
:101B5000B4490870B148007810B1AF48007838B186
:101B6000B2480078002859D0AF480078002855D1F5
:101B7000AF4800783030AF490870AF480078303057
:101B800048702E208870AD480088642190FBF1F0E9
:101B90003030A849C870A94800880A2190FBF1F0AC
:101BA00090FBF1F201FB12003030A2490871A3480A
:101BB00000880A2190FBF1F201FB120030309D49B0
:101BC0004871732088710A20C87100200872084685
:101BD000007842F2107110FB01F09649497801EB50
:101BE0004102C2EBC11100EBC1009249C97801EB7F
:101BF000C10202EB011100EB81008E49097901EB72
:101C0000810100EB41018B48407908448C49086010
:101C10008CA002F001FB874802F0FEFA7F480078B2
:101C200010B97D48007838B98048007800287DD107
:101C30007D480078002879D07D480078303086498A
:101C400008707D480078303048702E2088707B48BE
:101C50000088642190FBF1F030307F49C8707748EC
:101C600000880A2190FBF1F090FBF1F201FB1200D9
:101C7000303079490871714800880A2190FBF1F2EF
:101C800001FB1200303074494871732088710A20BA
:101C9000C871002008720846007842F2107110FBEB
:101CA00001F06D49497801EB4102C2EBC11100EB33
:101CB000C1006949C97801EBC10202EB011100EBD7
:101CC00081006549097901EB810100EB410162481E
:101CD000407908446149086061A002F09DFA5E48BD
:101CE00002F09AFA5D48006855490968401A61494E
:101CF00008600846006842F2107190FBF1F0303045
:101D00005D4908705B4800684FF47A7190FBF1F010
:101D10000A2190FBF1F201FB120030305649487065
:101D20002E20887053480068642100E02BE090FB6F
:101D3000F1F00A2190FBF1F201FB120030304E4924
:101D4000C8704C4800680A2190FBF1F090FBF1F25A
:101D500001FB1200303048490871464800680A21EA
:101D600090FBF1F201FB12003030434948717320BF
:101D700088710A20C8710020087240A002F04CFA55
:101D80003D4802F049FA2348007890B31F48007894
:101D900078B3032413E00120A0401E4909780840CD
:101DA00060B10120A04019490978084018B1601CB1
:101DB0003649087002E0012034490870641E002C86
:101DC000E9DA042513E00120A84012490978084007
:101DD00060B10120A8400D490978084018B1681C7D
:101DE0002B49087002E00020294908706D1C082D5D
:101DF000E9DB06480078064908700748007807497B
:101E00000870094800780949087070BD0100002079
:101E1000040000209803002002000020050000209C
:101E20009B0000209C0000200300002006000020F2
:101E30006B000020A00300206C0000204A0000205E
:101E40000C000020B0B4CFC2B0B4BCFCCAB1BCE43A
:101E5000CEAAA3BA00000000A903002010000020B1
:101E6000CBC9BFAAB0B4BCFCCAB1BCE4CEAAA3BA69
:101E70000000000014000020B2030020B3D6D0F808
:101E8000CAB1BCE4CEAAA3BA000000004000002002
:101E900041000020D0F8C82F22F0070222F48072FF
:101EA0001143C0F8C81F7047084401686FF352011E
:101EB0001143016012F0020F14BFB0218C210162A6
:101EC00014BF4FF4306140F60C0141627047425834
:101ED00042F00102425070470844016811F0020FBD
:101EE00014BF5108511E01617047002A826814BF57
:101EF000114322EA01018160704721F03F03184439
:101F0000036813F0020F18BF520803699A1A11F000
:101F1000010F14BFC26182617047000070B50024D8
:101F200028E000251EE0072619E005EBC40014494F
:101F3000085C304100F0010040B12421A00100EB19
:101F4000C500C01D801B0F4A115407E02021A001CD
:101F500000EBC500C01D801B0A4A1154761E002EDE
:101F6000E3DA6D1C082DDEDB0A20064901EB841143
:101F70000870641C102CD4DB024802F04DF970BDCF
:101F8000766100005C05002070B56A4800786A49F7
:101F9000097888420ED169480078694909788842F1
:101FA00008D16848007868490978884202D1012040
:101FB000664908706648007830B9614800785F4922
:101FC0000978401A012802DB0020604908705F4848
:101FD0000078002871D05F480078012831D10024B2
:101FE0002CE05D4850F834005C49B1FBF0F52A461E
:101FF0004FF480715A48FFF76FFF01228021584843
:10200000FFF773FFFFF7DCF85148007830B94C4810
:1020100000784A490978401A012803DB00204B491F
:1020200008700DE04C4901EBC4014868FEF701FB64
:10203000002280214A48FFF758FF641C1C2CD0DB8B
:1020400000BF44480078022831D100242CE04548E4
:1020500050F834004149B1FBF0F52A464FF4807145
:102060003F48FFF739FF012280213D48FFF73DFF40
:10207000FFF7A6F83648007830B9314800782F4984
:102080000978401A012803DB0020304908700DE070
:10209000344901EBC4014868FEF7CBFA00228021E5
:1020A0002F48FFF722FF641C202CD0DB00BF2948FB
:1020B0000078032832D100242DE039E02A4850F876
:1020C00034002649B1FBF0F52A464FF480712448CC
:1020D000FFF702FF012280212148FFF706FFFFF7EB
:1020E0006FF81B48007830B9154800781349097813
:1020F000401A012803DB0020144908700DE01A493A
:1021000001EBC4014868FEF794FA002280211448CC
:10211000FFF7EBFE641C192CD0DB00BF00228021EE
:102120000F48FFF7E2FE1148FEF783FAFFF748F881
:1021300070BD00006D000020640000206E000020D3
:10214000650000206F00002066000020A60000202F
:102150009B000020A5000020F0000020002D310190
:1021600000800240D0010020D0020020809698001C
:1021700010B51A4801F014FD00BF184801F024FD05
:102180000028FAD01548C01C01F00AFD00BF134812
:10219000C01C01F019FD0028F9D01048001D01F005
:1021A000FFFC00BF0D48001D01F00EFD0028F9D016
:1021B00021210B48FFF74DFB03210A48FFF73BFBAA
:1021C0000A23012203210748FFF774FA0648FFF7A4
:1021D0000DFB20210548FFF766FB10BD050800F048
:1021E0000050024000D003400614090000100640D1
:1021F00010B51E4801F0D4FC1D4801F0D1FC1D486B
:10220000FFF7F4FA1C48FFF7F1FA04211B48FFF727
:102210003CFB08211948FFF72AFB012218480168F6
:102220001848FFF7FBFB1748FFF7E6FBFF220C21DE
:102230002220FFF795FB044600220D212220FFF704
:102240008FFB044600220E212220FFF789FB044663
:10225000002203211820FFF783FB0446FF220121FF
:102260001820FFF77DFB044610BD0000002000F0A1
:10227000010800F002080100020C010000500040BB
:10228000A80000200000024010B5144801F088FCAE
:1022900000BF124801F098FC0028FAD00021104835
:1022A000FFF7F8FD00224FF480710D48FFF7FCFDA9
:1022B0000C484FF4807102680948FFF70DFE094889
:1022C0000068820840F207110548FFF716FE4FF438
:1022D00080710348FFF7FBFD10BD0000004000F0D7
:1022E00000800240A000002010B50B4801F058FC0F
:1022F00022210A4801F0B2FE094800686421B0FBBF
:10230000F1F42246FF21054801F0EAFEFF210348CF
:1023100001F0D4FE10BD0000000400F000000340F6
:10232000A800002010B5104801F03AFC0F4801F059
:1023300037FC00BF0D4801F047FC0028FAD001200F
:10234000FFF754FA40F20140FFF750FA03214FF033
:102350004020FFF7B6FA60234FF4E13204480168E9
:10236000044801F016FF10BD001800F0000800F04E
:10237000A800002000C0004010B508209749087050
:102380009748007890B19748007838B1FF22012132
:102390001820FFF7E5FA9449087019E0DF220121BF
:1023A0001820FFF7DDFA9049087011E08D48007899
:1023B00038B1FF2201211820FFF7D2FA8A490870AC
:1023C00006E0FB2201211820FFF7CAFA86490870AF
:1023D00086480078A8B18648007886490860864813
:1023E0000078486085480078C860854800780861B2
:1023F00084480078886184480078C86100207B495F
:10240000087000F089FC7B480068022806DD7948E6
:102410004068032802D00220764908607548406869
:10242000092806DD00207349486008460068401C02
:10243000086070480068022807D16E484068032889
:1024400003DD00206B49086048606A48C0680528C1
:1024500002DD00206749C86066480069092806DD7A
:102460006448C068401C6349C86000200861614836
:102470008069052802DD00205E4988615D48C069E9
:10248000092806DD5B488069401C5A4988610020A4
:10249000C86158480068002805DA5648406810B1FD
:1024A00000205449086053484068002806DA092093
:1024B0005049486008460068401E08604D48006862
:1024C00040B94C484068002804DA022049490860B5
:1024D000032048604748C068002802DA05204549C3
:1024E000C86044480069002806DA4248C068401EB7
:1024F0004049C860092008613E488069002802DA26
:1025000005203C4988613B48C069002806DA394803
:102510008069401E374988610920C8613B480078BE
:10252000D8B3344800783A490870324800793949BC
:1025300008703048007B384908702E48007C3749C5
:1025400008702C48007E364908702A48007F3549BB
:1025500008700020344908702D48007800EB800096
:102560002C49097801EB4000304908702A4800786E
:1025700000EB80002949097801EB40002C490870E4
:102580002748007800EB80002649097801EB4000DD
:102590002849087001202849087028480078E0B1CF
:1025A000144800781A4908701248007919490870CF
:1025B0001048007B184908700E48007C17490870C5
:1025C0000C48007E164908700A48007F15490870BB
:1025D0000020154908701849087010BD93000020AC
:1025E0009000002092000020000000209A000020AF
:1025F00067000020BC030020680000206900002064
:102600006A0000206B0000206C0000209B0000206E
:102610007000002071000020720000207300002074
:102620007400002075000020990000206D0000203B
:102630006E0000206F000020A40000209C000020FD
:1026400010B50820B8490870B848007890B1B8486B
:10265000007838B1FF2201211820FFF781F9B54930
:10266000087019E0BF2201211820FFF779F9B1495C
:10267000087011E0AE48007838B1FF22012118201F
:10268000FFF76EF9AB49087006E0FD220121182022
:10269000FFF766F9A7490870A7480078A8B1A748CE
:1026A0000078A7490860A74800784860A6480078E5
:1026B000C860A64800780861A54800788861A548E8
:1026C0000078C86100209C49087000F025FB9C48F8
:1026D0000068092802DD0020994908609848406890
:1026E000092802DD002096494860954800680028C6
:1026F00002DA09209249086091484068002802DA0D
:1027000009208F4948608E48008800EB80004FF414
:10271000FA6101EB40008A49898808448E490880A3
:102720008748C068012802DD00208549C8608448C8
:102730000069092806DD8248C068401C8049C860DD
:10274000002008617E48C068012807D17C480069E4
:10275000022803DD00207A49C86008617848C06813
:10276000002802DA01207649C8607548006900280F
:1027700006DA7348C068401E7149C86009200861C4
:102780006F48C06840B96E480069012804DA01202A
:102790006B49C860022008616948007C6849097B70
:1027A00001EB810100EB41006C490870084600789C
:1027B000022849D062488069032802DD0020604970
:1027C00088615F48C06909280ADD5D48806903287F
:1027D00006D05B488069401C594988610020C86167
:1027E00057488069032879D15C480078012817D0C0
:1027F0005A480078032813D05848007805280FD08D
:102800005648007807280BD054480078082807D08D
:10281000524800780A2803D0504800780C2809D183
:102820004748C069012859DD0020454988610120D9
:10283000C86153E04248C06900284FDD002040498C
:1028400088610120C86149E044480078022845D1E8
:102850003B488069022802DD0020394988613848F8
:10286000C06909280ADD36488069022806D0344844
:102870008069401C324988610020C8613048806905
:1028800002282BD1344909884FF4C87291FBF2F326
:1028900002FB131181B130490988642291FBF2F3E4
:1028A00002FB131191B12C490888C11700EB9171FB
:1028B0008910A0EB810149B92148C06909280DDDC3
:1028C00000201F4988610120C86107E01C48C069D9
:1028D000082803DD00201A498861C8612048007873
:1028E000D0B1174800781549087015480079154986
:1028F00008701348007B144908701148007C134984
:1029000008700F48007E124908700D48007F114979
:1029100008700020134908701348007810B1002097
:102920001049087010BD00009300002090000020A6
:1029300092000020000000209A0000205E0000208D
:10294000BC0300205F000020600000206100002028
:1029500062000020630000205A0000205C0000207C
:102960009B000020990000209C00002010B505204D
:10297000504908705048007838B100204F4908602D
:102980004860C86008614C4908704D48007890B1B3
:102990004C48007838B1FF2201211820FEF7E0FFF3
:1029A0004949087019E0EF2201211820FEF7D8FFED
:1029B0004549087011E04348007838B1FF220121F1
:1029C0001820FEF7CDFF4049087006E0F7220121EC
:1029D0001820FEF7C5FF3C49087000F09DF9374804
:1029E0000068092803DD0020344941F824003348F9
:1029F0000068002803DA0920304941F824002F48F4
:102A00004068092803DD00202C4941F824002B48A8
:102A10004068002803DA0920284941F824002748A3
:102A2000C068062803DD0020244941F8240023481B
:102A3000C068002803DA0520204941F824001F4817
:102A40000069092807DD1D48C068401C1B49C86093
:102A5000002041F8240019480069002807DA1748C7
:102A6000C068401E1549C860092041F82400174875
:102A70000078A8B111480068154908600F484068FF
:102A8000144908600D48C068134908600B48006984
:102A9000124908600020124908700120114908708D
:102AA0001148007820B100200D4908700D490870C8
:102AB00010BD0000930000209A000020BC030020FD
:102AC0009000002092000020000000209B000020C9
:102AD000780000207C00002080000020840000207E
:102AE000990000209D0000209C00002010B50820C7
:102AF0007A4908707A48007890B17A48007838B1FD
:102B0000FF2201211820FEF72BFF7749087019E0FA
:102B10007F2201211820FEF723FF7349087011E07E
:102B20007048007838B1FF2201211820FEF718FF05
:102B30006D49087006E0FE2201211820FEF710FF03
:102B40006949087069480078A8B1694800786949FE
:102B5000086069480078486068480078C86068483C
:102B60000078086167480078886167480078C86124
:102B700000205E49087000F0CFF85E480068022827
:102B800006DD5C484068032802D0022059490860ED
:102B900058484068092806DD002056494860084624
:102BA0000068401C086053480068022807D151485B
:102BB0004068032803DD00204E49086048604D4806
:102BC000C068052802DD00204A49C86049480069FC
:102BD000092806DD4748C068401C4649C8600020F7
:102BE000086144488069052802DD00204149886168
:102BF0004048C069092806DD3E488069401C3D49BF
:102C000088610020C8613B480068002805DA39481F
:102C1000406810B1002037490860364840680028F5
:102C200006DA09203349486008460068401E0860FB
:102C30003048006840B92F484068002804DA022074
:102C40002C490860032048602A48C068002802DA3E
:102C500005202849C86027480069002806DA254869
:102C6000C068401E2349C860092008612148806966
:102C7000002802DA05201F4988611E48C069002823
:102C800006DA1C488069401E1A4988610920C8611B
:102C90001E480078D0B117480078154908701548CB
:102CA0000079154908701348007B144908701148D1
:102CB000007C134908700F48007E124908700D48C7
:102CC000007F1149087000201149087011480078F0
:102CD00010B100200E49087010BD000093000020C4
:102CE0009000002092000020000000209A000020A8
:102CF00067000020BC03002068000020690000205D
:102D00006A0000206B0000206C0000209B00002067
:102D1000990000209C00002010B578480078082811
:102D200023D17748C07900B37648C079E8B17648B6
:102D30000078002813DD74480078032803D0724817
:102D40000078062805D170480078801E6E4908700A
:102D500008E06D480078401E6B49087002E00720CB
:102D60006949087000206649C871644800780728DE
:102D700023D16348807900B362488079E8B1624822
:102D80000078072813DA60480078012803D05E48ED
:102D90000078042805D15C480078801C5A490870E6
:102DA00008E059480078401C5749087002E00020AC
:102DB000554908700020524988715048007806280B
:102DC00013D14F48407980B14E48407968B14F489F
:102DD0004D49097850F82100401E4C494A4A127862
:102DE00041F82200002046494871444800780528EF
:102DF00013D14348007980B14248007968B1434813
:102E00004149097850F82100401C40493E4A127857
:102E100041F8220000203A490871002469E03A484C
:102E20000078844217D13A480078A0B100220521E9
:102E30002220FEF795FD374908700120A040C2B25C
:102E400006212220FEF78CFD3249087032480088A6
:102E5000FDF7EFFB4CE0022C01D0052C14D14022F1
:102E600005212220FEF77CFD2A4908700120A040A0
:102E7000C2B206212220FEF773FD264908702648BB
:102E80000088FDF7D6FB33E024480078C0B11F4826
:102E900050F8240022490A5C05212220FEF760FD3B
:102EA0001C4908700120A040C2B206212220FEF772
:102EB00057FD1849087018480088FDF7BAFB17E05D
:102EC000124850F8240017490A5C05212220FEF719
:102ED00047FD104908700120A040C2B206212220FF
:102EE000FEF73EFD0B4908700B480088FDF7A1FB7B
:102EF000641C0D480078844291DB10BD4100002025
:102F0000280000203800002091000020BC03002091
:102F1000920000200000002094000020900000207B
:102F2000D4000020C30000209300002070B50026CC
:102F3000F44802F0E6FAF448007800281BD0002498
:102F40000FE000250AE0F148415DEE4A601C105C8C
:102F5000814202D1EE498D55761C6D1C0A2DF2DBA3
:102F6000641CFF2CEDD90522EAA1E648FDF77DFAA5
:102F700010B902F02FFAA2E30322E8A1E148FDF71D
:102F800074FA002873D10722E5A1DE48FDF76DFA37
:102F9000D8B9DF480078E4490870DD484078E34953
:102FA0000870DB488078E2490870D948C078E14968
:102FB0000870D7480079E0490870D5484079DF4962
:102FC0000870DFA001F028F96FE00722E1A1CD48E9
:102FD000FDF74BFAD8B9CE488078E0490870CC4864
:102FE000C078DF490870CA480079DE490870C848CF
:102FF0004079DD490870C6488079DC490870C448CA
:10300000C079DB490870DBA001F006F94DE0082229
:10301000DDA1BC48FDF729FAD8B9BD480078DD49E3
:103020000870BB484078DC490870B9488078DB49B3
:103030000870B748C078DA490870B5480079D949AE
:103040000870B3484079D8490870D8A001F0E4F876
:103050002BE00722DBA1AB48FDF707FA40B9AC48EB
:103060000078DA490870DAA001F0D6F81DE020E017
:103070000A22DDA1A348FDF7F8F998B9A448007821
:10308000DC490860A2484078DB490860A0488078A5
:10309000DA4908609E48C078D9490860D9A001F093
:1030A000BBF802E0DCA001F0B7F8002096490870F8
:1030B00005E30322E5A19348FDF7D7F900287DD168
:1030C0000722E3A18F48FDF7D0F918BB9648007896
:1030D0003030E149087095480078303048703A2027
:1030E0008870934800783030C8709248007830304B
:1030F00008713A20487190480078303088718F48C4
:1031000000783030C871D5A001F086F8D24801F0BF
:1031100083F857E00722D5A17A48FDF7A6F918BB36
:103120008E4800783030CC4908708D4800783030B7
:1031300048702D2088708B4800783030C8708A48DD
:103140000078303008712D20487188480078303080
:103150008871874800783030C871C6A001F05CF8EB
:10316000BD4801F059F82DE00822C6A16548FDF7D9
:103170007CF920BB874800783030B7490870864812
:103180000078303048703A208870844800783030B9
:10319000C87083480078303008713A2048718148FF
:1031A000007830308871804800783030C871B8A01D
:1031B00001F032F8A84801F02FF803E006E0B9A0CA
:1031C00001F02AF800205049087078E20322C1A1DA
:1031D0004C48FDF74AF900283DD10722BEA14948D5
:1031E000FDF743F930B90120BD490870BDA001F0D9
:1031F00013F82CE00722BFA14248FDF736F930B999
:103200000220B7490870BDA001F006F81FE00822AF
:10321000BEA13C48FDF729F930B90320B049087038
:10322000BDA000F0F9FF12E00A22BEA13548FDF76B
:103230001CF948B90420AA4908700120BC4908704B
:10324000BCA000F0E9FF02E096A000F0E5FF00203E
:103250002D49087033E20922B9A12A48FDF705F982
:1032600048B90120B9490870002027490870B8A062
:1032700000F0D2FF23E20A22B8A12248FDF7F5F8B8
:1032800040B90020B14908701F490870B6A000F08D
:10329000C3FF14E20522B7A11A48FDF7E6F840B9CA
:1032A0000020A349087018490870B4A000F0B4FFCA
:1032B00005E20622B4A11348FDF7D7F860B9B44877
:1032C0000078C0F10100B249087000200E49087072
:1032D000B0A000F0A1FFF2E10A4800783F280FD12A
:1032E000B1A000F099FFB7A000F096FFB9A000F0E0
:1032F00093FFC3A000F090FFC5A000F08DFF9DE1FB
:10330000D6E10000DC030020EE000020B000002029
:10331000DE00002052455345540000005345540040
:1033200053455454494D4500670000206800002073
:10333000690000206A0000206B0000206C00002063
:10334000C9E8D6C3CAB1BCE4B3C9B9A6DFF77E0ADF
:103350000000000053455444415445005E000020E5
:103360005F0000206000002061000020620000205B
:1033700063000020C9E8D6C3C8D5C6DAB3C9B9A668
:10338000DFF77E0A00000000534554414C41524D86
:10339000000000007000002071000020720000207A
:1033A000730000207400002075000020C9E8D6C317
:1033B000C4D6D6D3CAB1BCE4B3C9B9A6DFF77E0A76
:1033C0000000000053455452494E4700A50000201C
:1033D000C9E8D6C3C4D6D6D3C1E5C9F9B3C9B9A61D
:1033E000DFF77E0A00000000534554535457415400
:1033F00043480000780000207C000020800000206E
:1034000084000020C9E8D6C3B5B9BCC6CAB1B3C9E7
:10341000B9A6DFF77E0A0000CAE4C8EBB5C4C3FC56
:10342000C1EED3D0CEF3A3ACC4FABFC9D2D4CAE4A0
:10343000C8EBA1B0A3BFA1B1C0B4B2E9BFB4CBF98E
:10344000D3D0C3FCC1EEC5B67E0A00004745540088
:1034500047455454494D4500E6000020B5B1C7B07A
:10346000CAB1BCE4CEAAA3BA000000004745544448
:1034700041544500B5B1C7B0C8D5C6DACEAAA3BA83
:1034800000000000474554414C41524D00000000EF
:10349000C9E8B6A8B5C4C4D6D6D3CAB1BCE4CEAACE
:1034A000A3BA0000CAE4C8EBB5C4C3FCC1EED3D0D4
:1034B000CEF3A3ACC4FABFC9D2D4CAE4C8EBA1B05E
:1034C000A3BFA1B1C0B4B2E9BFB4CBF9D3D0C3FCA0
:1034D000C1EE0A0052554E0052554E54494D45001A
:1034E00040000020CFD4CABEB5B1C7B0CAB1BCE459
:1034F0000A00000052554E4441544500CFD4CABE84
:10350000B5B1C7B0C8D5C6DA0A00000052554E4161
:103510004C41524D00000000CFD4CABEC4D6D6D311
:103520000A00000052554E5354574154434800007E
:103530009D000020B5B9BCC6CAB1C6F4B6AF0A003A
:103540004F50454E414C41524D000000A400002018
:10355000C4D6D6D3D2D1BFAAC6F40A00434C4F5327
:1035600045414C41524D0000C4D6D6D3D2D1B9D832
:10357000B1D50A005041555345000000B5B9BCC64D
:10358000CAB1D4DDCDA30A00544F47474C450000D3
:1035900090000020CAFDC2EBB9DCCFD4CABED2D1A4
:1035A000B7ADD7AA0A000000B1BECAFDD7D6D6D3A0
:1035B000BFC9CAB9D3C3C3FCC1EEC8E7CFC2A3BA5F
:1035C0000A000000312ED6D8C6F4C3FCC1EEA3BA5F
:1035D0000A0000005245534554090909C8EDD6D8E0
:1035E000C6F4CAFDD7D6D6D3A3ACB1A3C1F4B5B146
:1035F000C7B0CAB1BCE4C8D5C6DA0A0A00000000E8
:10360000322EC9E8D6C3C3FCC1EEA3BA0A0000003B
:103610005345542054494D452058583A58583A5823
:103620005809C9E8D6C3CAB1BCE4CEAA5858CAB131
:103630005858B7D65858C3EB0A00000020A000F035
:10364000EBFD2BA000F0E8FD354800F0E5FD35A0CE
:1036500000F0E2FD39A000F0DFFD3EA000F0DCFD4F
:1036600048A000F0D9FD4CA000F0D6FD50A000F01D
:10367000D3FD55A000F0D0FD5BA000F0CDFD5EA015
:1036800000F0CAFD62A000F0C7FD67A000F0C4FD15
:103690006DA000F0C1FD74A000F0BEFD79A000F0A7
:1036A000BBFD7CA000F0B8FD00208149087006E059
:1036B000AFF2102000F0B0FD00207D49087070BD11
:1036C000534554204441544520585858582D585873
:1036D0002D585809C9E8D6C3C8D5C6DACEAA585855
:1036E0005858C4EA5858D4C25858C8D50A000000DF
:1036F00053455420414C41524D2058583A58583A5D
:10370000585809C9E8D6C3C4D6D6D3CAB1BCE4CE8A
:10371000AA5858CAB158B7D65858C3EB0A00000087
:10372000106800004F50454E414C41524D0909B4BC
:10373000F2BFAAC4D6D6D30A00000000434C4F53B0
:1037400045414C41524D0909B9D8B1D5C4D6D6D35B
:103750000A00000053455420535457415443482015
:1037600058583A585809C9E8D6C3B5B9BCC6CAB101
:10377000B4D35858B7D65858C3EBBFAACABC0A0A24
:1037800000000000332EBBF1C8A1D7B4CCACC3FC01
:10379000C1EEA3BA0A0000004745542054494D45E4
:1037A0000909BBF1C8A1B5B1C7B0CAB1BCE40A00F0
:1037B00047455420444154450909BBF1C8A1B5B15E
:1037C000C7B0C8D5C6DA0A0047455420414C41521B
:1037D0004D0909BBF1C8A1B5B1C7B0C4D6D6D3CA8B
:1037E000B1BCE40A0A000000342ED4CBD0D0C3FC14
:1037F000C1EEA3BA0A00000052554E2054494D456F
:103800000909CFD4CABEB5B1C7B0CAB1BCE40A0079
:1038100052554E20444154450909CFD4CABEB5B1D2
:10382000C7B0C8D5C6DA0A0052554E20414C4152A5
:103830004D0909CFD4CABEB5B1C7B0C4D6D6D3CA14
:10384000B1BCE40A0000000052554E2053545741C9
:10385000544348090920D4CBD0D0B5B9BCC6CAB1AD
:10386000C3EBB1ED0A00000050415553450920203B
:103870000909D4DDCDA3B5B9BCC6CAB1C3EBB1ED5E
:103880000A0A0000352EB7ADD7AAC3FCC1EEA3BA11
:103890000A000000544F47474C45090909B7ADD706
:1038A000AACAFDC2EBB9DCCFD4CABE0A0000000030
:1038B000EE0000202DE9F003AF4D02462868AF4B23
:1038C0001840A0F18053B3F5A02359D002F0380975
:1038D000DFF8AC82C2F38414B9F1100F25D0B9F12E
:1038E000300F04BF47F230504FF400130DD04FF0AB
:1038F0003800904304BF4FF40040C30105D012F0DC
:10390000380F1CBF0020034613D09E4F12F4605F97
:103910004FF0000618BF00222CD057F83240444523
:103920007DD307EBC2025268E1E000234046152434
:10393000EBE7A4F10900122822D29348D5F87CC005
:103940004FF04C7350F824002CF01C0C072CA8BF2F
:103950004CF0100CC5F87CC02E6D4FF4002C16F402
:10396000807FD2D1BCF1010C0AD02E6D16F4807F7D
:10397000F8D0CAE712F0380F18BFB9F1100F04D011
:10398000BDE8F0034FF000007047C2F30268DFF8B3
:10399000FCC14FF0000257F83290E14503D307EB2A
:1039A000C202526803E0521C062AF4D33246C5F81C
:1039B000C020D5F8B020DFF8D8C102EA0C0242F0EE
:1039C0000042C5F8B020DFF8CCC1A4F109024C1EBA
:1039D0005CF828C0A444BCFBF1FCD5F8B010194336
:1039E000C5F8B01008EBC80101EB41046A4902EBCD
:1039F000420201EBC40101EB82046468C5F8644132
:103A0000D5F864416FF0FF0808EB0C2C44EA0C0C6D
:103A1000C5F864C151F82210D5F8602100E061E0DA
:103A200002F400021143C5F86011D5F86011D5F811
:103A30006021C1F38921C2F30904D5F86421C2F3DE
:103A4000042202F1010CD5F8642102F01F02521C7D
:103A5000B0FBF2F04A09C2F100084443424301EBD3
:103A6000481104EB5212484302EB9020B0FBFCF0EB
:103A700041080846002257F832C0844503D307EBBB
:103A8000C200466802E0521C062AF4D3C5F8C060A2
:103A9000D5F8600110F4000F1DBFD5F8B00040F05C
:103AA0008040C5F8B000D5F8600104BF40F40000C4
:103AB000C5F860014FF40040D5F8682112F0010FFD
:103AC00002D1401E0028F7DC002808BF002148D0A2
:103AD000D5F8B000184340F0010040F01040C5F8A0
:103AE000B0003EE0521C062AFFF417AF3246C5F87C
:103AF000C020D5F8602122F40002C5F86021D5F875
:103B0000B020DFF898C002EA0C0242F00042C5F88B
:103B1000B020002908BF4FF0000C0AD0B0FBF1FC28
:103B2000BCF1000F18BFACF1010C0CF10101B0FBAE
:103B3000F1F10846002257F83240844203D307EBE4
:103B4000C200466802E0521C062AF4D3C5F8C060E1
:103B5000D5F8B00043EA8C22104340F00040C5F88D
:103B6000B000D5F8B00020F47000C5F8B000BDE892
:103B7000F00308467047000000E00F400000FF70AF
:103B80000024F400506700003465000040787D0197
:103B900000FC0FE02C650000A0650000FF0300EFB3
:103BA000C0F307230749C0B2194401F07043C1F3C1
:103BB000130143EA411141EA800040F00070012204
:103BC0000260704700E60F40C0F307220849C0B208
:103BD000114401F07042C1F3130142EA411141EA7C
:103BE000800040F000700068002818BF0120704776
:103BF00000EA0F40C0F307230C49C0B2194401F09A
:103C00007043C1F3130143EA411141EA800040F0DF
:103C1000007181B001220A60002200920098401CCD
:103C200000901028FAD30A6001B0704700E50F40F9
:103C3000024901480860FEE70400FA050CED00E0C7
:103C40004FF0E020016941F005010161704700007B
:103C500010B5074800684FF47A71B0FBF1F42046C4
:103C600000F00FF8FFF7ECFF00F004F810BD0000C3
:103C7000A80000204FF0E020016941F0020101613D
:103C800070474FF0E021401E4861704710B556481C
:103C90000088401C5449088008460088B0F57A7FA7
:103CA00001DB0020088051480078B0B150480088FE
:103CB000401C80B24E490880642807DB4D480078DC
:103CC000401C4C4908700020494908804948007848
:103CD000182802D100204549087047480088401C38
:103CE00080B245490880B0F5487F05DB434800783D
:103CF000C0F101004149087041480088401C80B271
:103D00003F490880B0F57A7F07DB3E480078401CC9
:103D10003C49087000203A4908803A4800780A284F
:103D200007DB39480078401C3749087000203549C6
:103D3000087035480078062807DB34480078401CB6
:103D400032490870002030490870304800780A284D
:103D500007DB2F480078401C2D49087000202B49B4
:103D600008702B480078062807DB2A480078401C9A
:103D700028490870002026490870264800780A283B
:103D800007DB25480078401C2349087000202149A2
:103D900008702148007800EB80001E49097801EB8B
:103DA00040001E4908701A48007800EB800017494F
:103DB000097801EB40001A4908701348007800EBBD
:103DC00080001049097801EB400016490870012174
:103DD0001548FDF72DFD1549087002211248FDF721
:103DE00027FD1349087010BD4A00002097000020ED
:103DF00050000020520000205400002092000020BB
:103E0000560000206C0000206B0000206A0000209B
:103E10006900002068000020670000206400002086
:103E2000650000206600002000D003400200002052
:103E3000030000200448006840F470000249086054
:103E4000024803490860704788ED00E00024F40050
:103E50009C03002070B501216F4800F03CF9054635
:103E600029466D4800F031F9002464E00120A040AB
:103E70006A490978084058B10120694908556948DC
:103E8000005D401C6749085500206749085507E058
:103E900000206349085563490855012062490855C7
:103EA0005F48005D70B15F48005D02280ADD5D4833
:103EB000005D322806DA01205C49085500205C4983
:103EC000085511E05648005D70B15648005D642801
:103ED0000ADD0020554908550120554908550020A4
:103EE0004F4908554F4908555148005D70B1042CA1
:103EF0000CDA50480078C0F101004E4908700846BD
:103F000000784D4908700020494908554848807993
:103F100020B14748C07908B101F05CFA4448007903
:103F200040B14348407928B144480078C0F10100CD
:103F300042490870641C082C98DB4148007800282E
:103F400068D04048006878B93F48006860B93F4889
:103F5000006848B93E48006830B93E48006818B962
:103F60003D480068002855D036480068401E354955
:103F7000086008460068002807DA33480068401ED9
:103F80003149086009202F4908602F48006800283F
:103F900007DA2E480068401E2C49086009202A498B
:103FA00008602A480068002807DA29480068401E8F
:103FB000274908600920254908602548006800282D
:103FC00007DA24480068401E22490860052020497D
:103FD000086020480068002807DA1F480068401E73
:103FE0001D49086009201B4908601648006888B907
:103FF0001548006870B91548006858B91448006839
:1040000040B91448006828B91348006810B9002066
:104010000B49087070BD0000000003400100002043
:104020001800002020000020380000202800002078
:1040300030000020990000209A000020900000200D
:104040009D0000208C0000208800002084000020BB
:10405000800000207C0000207800002010B4C2689E
:1040600022F0010222F48072C2600A0E0260114A3C
:104070001268114B02EA030CACF18054CBB2C1F3CD
:104080000722B4F5202407D043F40071416042F4C4
:104090000071816010BC70474FF4704C0CEA111431
:1040A000234343F4007343600CEA1121114341F4AC
:1040B0000071EEE700E00F400000FF70C26840F2C0
:1040C000011319401143C160704741627047826912
:1040D000114381617047002914BF006AC0697047AD
:1040E00011F0FF0F18BF826211F47F4F18BFC26238
:1040F0007047000070B50121184800F087F80446A9
:104100002146164800F07CF821E0144800F02EF813
:104110000546FCF79BF91249124A12788854084662
:1041200010490978405C0A2805D00E480078401CE8
:104130000C4908700BE0002109480A4A12788154A2
:1041400001200949087000200649087004E003486E
:1041500000F01AF80028D8D100BF70BD00C00040A0
:10416000DC03002096000020EE000020816911F0A1
:10417000100F0CBF00684FF0FF307047826912F0DB
:10418000200FFBD1016070478069012121EA1010E6
:104190007047D0F818C01CF0080FFAD1D0F82CC026
:1041A0002CF0100CC0F82CC0D0F830C02CF0010C52
:1041B0002CF4407CC0F830C0D0F830C0B1EB021F06
:1041C00034BF4CF0200C2CF0200CC0F830C038BFAD
:1041D0005208C900B1FBF2F1491C49088A09426240
:1041E00001F03F018162C36200218161C16A41F037
:1041F0001001C162016B40F201321143016370474B
:1042000041647047826B114381637047002914BF7A
:10421000006CC06B7047000010B5044604E014F851
:10422000011B0348FFF7AAFF20780028F7D110BD33
:1042300000C0004003B401984100009850EAC1203A
:1042400018BF04204A0D18BF40F0010040F2FF7271
:10425000B2EB515F08BF40F00200012808BF052003
:1042600002B07047000000002DE9F04D2DED040B69
:104270002DED0E8B96B0DDE92550279CDDF890A042
:1042800025F0004624F00048BAF1000F14BF0121C8
:10429000002101EB4502FC4953184A1093422AD3EE
:1042A000002814BF0123002303EB44030B44F74908
:1042B0008B4220D358EA00019FEDF59B76D0DFF8C2
:1042C000D8B35D4503D1BAF1000F05D188E0BAF14A
:1042D000000F08BF002100D0012101EB450111F5BD
:1042E000001F08D8002814BF0121002101EB440160
:1042F00011F5001F0BD99DED261B9DED240B16B06B
:10430000BDEC0E8B04B0BDE8F04D00F069BE002797
:10431000002DBCBFE149884521DAE1498845A8BFA5
:1043200002271CDAC3451ADCDE4901EB28511429A7
:1043300008DDC1F1340220FA02F101FA02F28242F0
:104340000DD108E058B9C1F1140228FA02F101FABE
:1043500002F2424503D101F00101C1F1020756EA20
:104360000A0124D1002C22DA002D18BF022F01D01F
:10437000012F0AD00220FCF7D4F816B0BDEC0E8B4A
:1043800004B0BDE8F04D00F013BE0220FCF7C9F800
:1043900000F00EFE51EC100B01F0DAF841EC100BBE
:1043A00016B0BDEC0E8B04B0BDE8F08D18E09FEDAB
:1043B000BEAB9FEDBF8B002871D1B848804522D19C
:1043C00005F1804010F5801008BFBAF1000F07D04A
:1043D000B3450ADC002CA8BF9DED260BE0DA0DE00A
:1043E000B0EE490AF0EE690ADAE7002C06DA9DED34
:1043F000260B51EC100B01F0ABF86FE0AE4878449F
:1044000090ED000BCCE7D8454DD1002C48DA2EB109
:1044100086423AD1BAF1000F42D126E0BAF1000F3C
:1044200013D00220FCF77DF800F0F6FD8DED020BB5
:104430009DED240B8DED000B10EE900A039961F3B6
:104440001E0003909DED020BAAE78DED02AB9DEDE2
:10445000240B1AEE901A10EE900A8DED000B61F30A
:104460001E0003909DED020B9AE78DED028B9DEDF2
:10447000240B18EE901A10EE900A8DED000B61F3EC
:104480001E0003909DED020B8AE709DA9DED240BD7
:1044900051EC190B53EC102B01F022F91EE020E037
:1044A0009DED240B7CE786421BDAB4F1804F0DD0E2
:1044B000A4F10050B0F1FF5013D1002D11DB9DEDA0
:1044C000240B51EC100B00F0E5FF07E09DED240BF1
:1044D00053EC102B51EC100B00F0C2BC41EC100B54
:1044E0005EE79DED240B51EC100B00F01FFEBAF1BE
:1044F000000FCDE90E0142D19FED710B46B3A6F13D
:10450000E040B0F17F600CD05E4538D1002D00DA7C
:10451000A7B3022F0CBF01204FF0FF3001F065FA66
:10452000DCE7002D01DD002C0DDA002D01DD002C73
:104530001FDB002D16DA002C14DB012F08BF9FEDC6
:10454000620B3FF42DAFB0EE4A0AF0EE6A0A27E79D
:10455000022F18BF002D0CD0012F0AD1002DFFF61D
:104560001FAF06E0002DB8BF002C08DA012F3FF482
:1045700017AFB0EE480AF0EE680A11E71BE0012021
:1045800000EBE57050EA070115D0791EB0EE498ABC
:10459000F0EE698A084308BF9FED4D8B4E48002519
:1045A000804570DD4D494E48884514DDB0420DDB35
:1045B000002C19DB2FE00120FBF7B3FF16B0BDEC98
:1045C0000E8B04B0BDE8F04D00F016BDB34502DC23
:1045D000002C09DC1FE0864202DA002C1BDA03E023
:1045E0005E452BDD002C16DD0220FBF79AFF00F064
:1045F00013FD8DED020B53EC1A2B51EC180B01F04F
:1046000047FACDE900010399019861F31E00039078
:104610009DED020BC4E60220FBF783FF00F00CFDCA
:1046200010EE901A18EE900A8DED020B8DED008BB6
:1046300061F31E0003909DED020BB1E69DED0E0BA4
:1046400053EC192B51EC100B01F02EFC9FED260BB7
:10465000CDE9080153EC102B9DED080B51EC100B2C
:1046600001F016FA9FED221B53EC112B01F044FBD5
:104670009DED081B53EC112B01F00AFA9FED1E1B58
:1046800053EC112B3CE08CE0FFFF1F00FFFF0F00FD
:10469000000000000000F03F0000F03F0000F07F4D
:1046A0000000404301FCFFFF000000000000F07F1D
:1046B00000000000000000000624000000000000D0
:1046C0000000000000000080000000000000F0FF7B
:1046D000000000000000F0BF0000E0410000F043D7
:1046E000FFFFEF3F00000000000000000000D03F8F
:1046F000555555555555D53F000000000000E03F89
:1047000001F0FAFA9DED080B41EC1A0B53EC102B5B
:1047100051EC100B01F0BCF953EC1A2B01F0B8F975
:1047200041EC1A0B9FEDFE0B53EC102B9DED080B8B
:1047300051EC100B01F0ACF941EC1B0B9FEDFA0BA7
:1047400051EC1A0B53EC102B01F0A2F941EC1A0BAF
:104750009FEDF70B53EC102B9DED080B51EC100B5C
:1047600001F096F953EC1A2B01F09EFB41EC1A0B69
:1047700051EC1B0B53EC1A2B00F0F6FE0690CDE922
:1047800006519DED060B53EC1B2B51EC100B01F069
:104790008BFB53EC1A2B01F0AFFA41EC100B00F03D
:1047A000A1B90020B6F5801F0EDA9FEDE30B53ECA4
:1047B000102B9DED0E0B51EC100B01F069F9CDE9BA
:1047C0000E016FF034000E4600EB2650A0F2FF37CA
:1047D000C6F31300DA4940F07F6646F0405688423F
:1047E000D8BF002408DDD7498142C8BF012403DCBB
:1047F0000024A6F580167F1CD348784400EBC40043
:104800000F9690ED00CB9DED0E0B53EC1C2B51EC55
:10481000100B01F049FB9DED0E0B41EC1B0B53EC13
:104820001C2B51EC100B00F09FFE41EC100B51ECD7
:10483000190B53EC102B00F053FF41EC1D0B51EC06
:104840001B0B53EC1D2B01F023F941EC1A0BBF4855
:104850008DED10AB7844109590ED000B4FF00050AB
:1048600040EA660000EB84408DED080B00F5002067
:1048700009909DED080B53EC1C2B51EC100B01F033
:1048800013FB9DED0E1B53EC112B01F035FA41EC9F
:10489000100B53EC102B9DED100B51EC100B01F095
:1048A000F7F89DED080B41EC1C0B53EC102B9DED24
:1048B000100B51EC100B01F0EBF853EC1B2B01F03B
:1048C0001BFA53EC1C2B01F0EFFA53EC1D2B01F0FB
:1048D000DFF841EC1C0B53EC1A2B51EC1A0B01F0D6
:1048E000D7F841EC1B0B9A480621B0EE4B0AF0EECC
:1048F0006B0A784400F0E0FAB0EE401AF0EE601A6D
:10490000B0EE41DAF0EE61DA53EC1B2B51EC1B0BED
:1049100001F0BEF853EC1D2B01F0BAF89DED100B21
:1049200041EC1B0B53EC1A2B51EC100B00F01CFE4E
:1049300053EC1C2B01F0ACF853EC1B2B00F014FED5
:104940009DED100B41EC1B0B53EC102B51EC100B9D
:1049500001F09EF841EC1D0B9FED7FEB53EC1E2BFD
:1049600000F002FE53EC1B2B00F0FEFD0890CDE999
:1049700008519DED080B53EC1E2B51EC100B01F070
:1049800093FA53EC1D2B01F08FFA53EC1B2B01F023
:10499000B3F99DED080B41EC1D0B53EC102B9DED75
:1049A000100B51EC100B01F073F841EC1B0B53ECA6
:1049B0001A2B51EC1D0B01F06BF89DED080B41EC2F
:1049C0001A0B53EC102B51EC1C0B01F061F853EC5B
:1049D0001A2B00F0C9FD41EC1A0B51EC1B0B53ECE8
:1049E0001A2B00F0C1FD0C90CDE90C519DED0C0B84
:1049F00053EC1B2B51EC100B01F056FA53EC1A2B15
:104A000001F07AF941EC1B0B9FED550B53EC102B89
:104A10009DED0C0B51EC100B01F03AF841EC1A0B28
:104A20009FED510B51EC1B0B53EC102B01F030F8A8
:104A300041EC1B0B9FED4E0B53EC102B9DED0C0B23
:104A400051EC100B01F024F853EC1B2B00F08CFD03
:104A500041EC100B4848784400EBC40090ED001B7B
:104A600051EC100B53EC112B00F07EFD41EC1B0BB5
:104A7000384600F0BAFFCDE9080153EC1B2B51EC8E
:104A80001A0B00F071FD41EC100B3C48784400EB30
:104A9000C40090ED00CB51EC100B53EC1C2B00F03C
:104AA00063FD9DED081B53EC112B00F05DFD06909E
:104AB000CDE906519DED080B53EC102B9DED060B37
:104AC00051EC100B01F0F0F953EC1C2B01F0ECF958
:104AD00053EC1A2B01F0E8F953EC1B2B01F00CF905
:104AE00041EC100B9DED261B53EC102B8DED001BA4
:104AF00000959DED260B51EC100B00F0C9FF9DEDCC
:104B0000000B41EC1A0B53EC102B9DED260B51ECD6
:104B1000100B01F0C9F99DED061B53EC112B2FE092
:104B2000000000604715F73FFE822B654715F73FF1
:104B300044DF5DF80BAE543E00000000000040432F
:104B40008E9803007AB60B00821F0000B01F000091
:104B5000BA1E000000000000000000000000084035
:104B6000000000E009C7EE3FFD033ADC09C7EE3F55
:104B7000F5015B14E02F3EBE461D0000001D000045
:104B800000F086FF53EC1A2B00F0EEFC9DED060BB7
:104B900041EC1A0B53EC102B9DED000B51EC100B5C
:104BA00000F076FFCDE90C019DED0C0B51EC1A0BDA
:104BB00053EC102B00F0D8FCCDE902010C46AA49B9
:104BC0008C422FDB611A084318D19DED0C0B53EC7E
:104BD000102B9DED020B51EC100B01F065F941EC2F
:104BE0001B0B9FEDA30B51EC1A0B53EC102B00F099
:104BF000BBFC53EC1B2B01F049F82DD20220FBF734
:104C000090FC00F009FA10EE901A18EE900A8DED63
:104C1000020B8DED008B61F31E0003909DED020BE6
:104C2000FFF7BEBB944A24F00041914214D393494C
:104C3000214408437FF4EFAC9DED0C0B53EC102B9B
:104C40009DED020B51EC100B01F02EF953EC1A2BD9
:104C500001F01CF87FF6DFAC24F000408849894A57
:104C6000002601EB205182422BDA481C4FF48011C0
:104C700021FA00F02044844AC0F30A517A44A1F298
:104C8000FF3192ED000B814A8DED080BCA4020EAFE
:104C90000202C0F3130040F48010C1F1140120FAA5
:104CA00001F60992002CB8BF76429DED080B53EC3B
:104CB000102B9DED0C0B51EC100B01F0F5F8CDE92C
:104CC0000C019DED0C0B51EC1A0B53EC102B00F06A
:104CD0004BFC9FED6F0B0890CDE9085153EC102B66
:104CE0009DED080B51EC100B00F0D2FE41EC1B0BBC
:104CF0009FED690B53EC102B9DED080B51EC100B45
:104D000000F0C6FE9DED0C0B41EC1C0B53EC102B80
:104D10009DED080B51EC100B01F0C6F853EC1A2B6B
:104D200000F0EAFF9FED5E1B53EC112B00F0B0FE8C
:104D300053EC1C2B00F018FC41EC1A0B51EC1B0B34
:104D400053EC1A2B00F010FCCDE902019DED020B93
:104D500053EC1B2B51EC100B01F0A6F853EC1A2B63
:104D600000F0CAFF9DED020B41EC1A0B53EC102B27
:104D700051EC100B00F08CFECDE908014A489DED86
:104D8000080B0521784400F097F89DED081B51ECC5
:104D9000100B53EC112B00F07BFE9DED021B53EC2E
:104DA000112B00F0A9FFCDE906019DED020B53EC9C
:104DB0001A2B51EC100B00F06BFE53EC1A2B00F089
:104DC000D3FB9FED3B0B41EC1A0B53EC102B9DEDED
:104DD000060B51EC100B01F067F89DED060B41EC52
:104DE0001B0B53EC102B9DED020B51EC100B00F044
:104DF0004FFE53EC1B2B00F073FC53EC1A2B01F00D
:104E000053F89DED021B53EC112B01F04DF853ECC0
:104E1000192B00F071FFCDE9020101EB06500115DD
:104E20000029C8BF039015DC9DED020B324651EC02
:104E3000100B01F05AF9FFF7FDF9042808BF00F044
:104E4000FBF832469DED020B51EC100B01F04DF9D1
:104E5000CDE902019DED020B51EC180B53EC102B28
:104E600000F016FEFFF73ABB000090400000000083
:104E7000FE822B654715973C00CC904000346F3F75
:104E800001FCFFFF0000E03F881B0000FFFF0F0058
:104E900000000000432EE63F396CA80C615C20BE88
:104EA000EF39FAFE422EE63F581A000000000000DB
:104EB000000000000000004070B504462DED028B9C
:104EC0004D1E00EBC500B0EE408AF0EE608A90ED1A
:104ED000000B35F0060017D053EC182B51EC100BDB
:104EE00000F0D6FD41EC100B6D1E04EBC50090EDFB
:104EF000001B51EC100B53EC112B00F035FB41EC77
:104F0000100B35F00600E7D1022D36D0042D1CD051
:104F1000062D1CBFBDEC028B70BD53EC182B51EC61
:104F2000100B00F0B5FD94ED0A1B53EC112B00F0B3
:104F30001BFB53EC182B00F0ABFD94ED081B53EC5E
:104F4000112B00F011FB41EC100B53EC182B51EC22
:104F5000100B00F09DFD94ED061B53EC112B00F09F
:104F600003FB53EC182B00F093FD94ED040B53EC72
:104F7000102B00F0F9FA41EC100B53EC182B51EC0C
:104F8000100B00F085FD94ED021B53EC112B00F08B
:104F9000EBFA53EC182B00F07BFD94ED001B53EC67
:104FA000112B00F0E1FABDEC028B41EC100B70BD4F
:104FB0009FED070B10B553EC102B9FED070B51EC39
:104FC000100B00F08DFB41EC100B10BD0000000039
:104FD0000000000000000000000000000000F03FA2
:104FE00010B553EC112B51EC100B00F0BDFA41EC55
:104FF000100B10BD000000009FED050B10B553EC29
:10500000102B51EC100B00F06BFB41EC100B10BDA2
:1050100000000000000000009FED050B10B553ECF0
:10502000102B51EC100B00F033FD41EC100B10BDB8
:1050300000000000000000709FED050B10B553EC60
:10504000102B51EC100B00F023FD41EC100B10BDA8
:10505000000000000000001070B52DED068B00244C
:1050600044E029490D78E91705EB5171C910A5EB0A
:10507000C101481C00F0B9FC41EC1A0BB0EE4A1A11
:10508000F0EE6A1A9FED210BFFF7EEF8B0EE409AB2
:10509000F0EE609A9FED1F0B53EC102B51EC190BA7
:1050A00000F02AFE41EC180B00F072FCC6B232464A
:1050B00001211820FCF754FC184908701848005DBD
:1050C00018490A5C05212220FCF74AFC13490870A4
:1050D0000120A040C2B206212220FCF741FC0F496A
:1050E000087011480088FBF7A4FA641C0649087888
:1050F000C11700EB5171C910A0EBC101491CA142BD
:10510000AFDCBDEC068B70BD52000020000000003B
:10511000000000400000000000007040000000207F
:10512000BA000020C30000209400002082B0CDE926
:10513000000121F0004001909DED000B02B051EC08
:10514000100B70477C497D48FEF7B4FB7C49086032
:105150007C48FEF725FD00BF7A48FEF735FD0028A4
:10516000FAD0FCF7A5F9784908600846006808B14C
:1051700000BFFEE7402211017448FCF76DFA734846
:10518000006B012842D171480078714908706F485E
:105190000079704908706D48007A6F4908706B4853
:1051A000007B6E4908706948007C6D49087067484B
:1051B000007D6C4908706548007E6B490870634843
:1051C000007F6A490870614890F8200068490870BB
:1051D0005E4890F82400674908705C4890F8280001
:1051E00065490870594890F82C00644908700024FB
:1051F00004E00020624941F82400641C0D2CF8DB17
:10520000402211015E48FCF775F921E00220504967
:10521000087003204F49087000204F49087006208D
:105220004E49087001204E4908704E490870002010
:105230004D49087008204D49087000204C490870FD
:105240004C49087005204C49087007204B490870EC
:10525000FCF78EFFFCF7CCFFFDF764F8FDF714F8C0
:10526000FDF742F801214748FEF731FF2320FCF704
:1052700003FCFEF7EDFC50214348FEF7C3FF152069
:10528000FCF7FAFBFCF72AFCFCF748FE3FA0FEF710
:10529000C3FF50E04848007808B9FCF727FC4748AE
:1052A000007808B1FCF770FEFDF740FE4248007838
:1052B00010B1FFF7D1FE3EE041480078012806D04A
:1052C00002280DD0032814D0042830D11AE03D481C
:1052D000007810B1FDF70AFC01E0FBF771FF29E04F
:1052E0003848007810B1FDF7ABF901E0FBF7A4FCFA
:1052F00020E03448007810B1FDF73EF801E0FBF7FC
:105300009FF917E02F48007810B1FDF72FFB0DE053
:10531000FBF704FE2C48007810B101202B490870DF
:105320002B48007810B100202849087002E0FBF7F4
:1053300047FF00BF00BFADE7002D3101500500F170
:10534000A8000020005800F0AC0000201C05002040
:105350005E0000205F00002060000020610000204F
:105360006200002063000020670000206800002029
:10537000690000206A0000206B0000206C00002003
:10538000DC0400200000034000C000400AC6F4B660
:10539000AFB3C9B9A6A3A1C4FABFC9D2D4CAE4C8DD
:1053A000EBA1B03FA1B0C0B4B2E9BFB4CBF9D3D048
:1053B000C3FCC1EEC4F30A0097000020A400002043
:1053C00040000020990000209B0000209D0000204C
:1053D0009C00002010B52048FEF7E2FB00BF1E48ED
:1053E000FEF7F2FB0028FAD0FCF762F81B490860D0
:1053F0000846006808B100BFFEE71948007819495F
:105400000860194800784860184800788860184893
:105410000078C8601748007808611748007848612C
:1054200016480078886116480078C86115480078E9
:105430000862154800784862144800788862144869
:105440000078C86201200863402281020548FCF709
:1054500051F8FEF7EDFB10BD005800F0AC00002045
:105460005E000020DC0400205F00002060000020BF
:10547000610000206200002063000020670000201F
:1054800068000020690000206A0000206B000020F6
:105490006C00002000B52DED048B83B041EC190B9E
:1054A00000F036FC41EC180B18EE100A18EE901ABA
:1054B0008DED008B002818BF0120084320F000402C
:1054C000C0F17F6000F1E040C00F14D019EE101A57
:1054D00019EE900A8DED009B002918BF01210843A9
:1054E00020F00040C0F17F6000F1E040C00F04BF39
:1054F0000120FBF716F851EC180B03B0BDEC048B40
:1055000000BD30B50021002207E0435C202B03D012
:10551000455C1346521CC554491C435C002BF4D116
:10552000835430BD10B500290AD00878002807D070
:1055300005487844FBF736F8002801D0002010BD5C
:105540000248784410BD00005A13000052130000B6
:1055500081F00041704780F00040704721F0004129
:10556000704720F00040704710B591EA030F48BF24
:1055700083F0004300F1A084841A71EB030C05D280
:10558000121943EB0C03001B61EB0C01DFF824E163
:105590004FEA1154A4EB135C1EEA430F18BF9EEAB6
:1055A000445F73D023EA0E03DCF1200E21EA04519C
:1055B00043F4801332D322FA0CFE10EB0E0023FAD0
:1055C0000CFE41EB0E01CCF1200E03FA0EFE10EBA7
:1055D0000E0051F10001B1F5801FCCF1200E32D246
:1055E00001EB045112FA0EF2BDE8104058BF7047AB
:1055F000401C38BF5FEA420218BF7047002814BF42
:1056000020F0010041F100014FEA410313F5001FB2
:1056100038BF7047A1F1C04100F032BB012A43EB13
:105620000302ACF1200CDCF11F0E32BF4FF0000E74
:1056300023FA0CF310EB030041EB0451B4EB115FC0
:10564000D0D0A1EB045101F5801149085FEA300088
:1056500001EB04510ED350F1000038BF12FA0EFED8
:1056600008D1BDE81040C9E7401C38BF5FEA4202DC
:10567000CAD1C3E7BDE810404FEA410313F5001F4C
:1056800038BF7047A1F1C04100F0FABA9EEA445F0A
:1056900008D011EA5E0FBDE8104004BF01F00041E0
:1056A00000207047BDE8104070B500F09BFA00BFC5
:1056B00064FBBE3E0000E0FF02494FF0000000F036
:1056C000E2BC00BF0000F87F491058BFC1F1404163
:1056D0005B1058BFC3F140438B42EFF3008070472B
:1056E0002DE9C04130B4DFF8A0C23CEA111418BF64
:1056F0003CEA131400F0EC8081EA03051CEA111463
:1057000044EAD57418BF1CEA131500F0C780A4EB57
:1057100005044FF0004545EAC12145EAC32341EAAB
:10572000505143EA525304F17F74994204F5003416
:105730004FEAC0204FEAC22208BF904200F09C808E
:105740004FEA13650FF24016765D4FEA134506FBEC
:1057500005F7C7F1807706FB07F74FEAD737A7FBB6
:1057600003687642C8F58038A7FB06CE38BFA8F19B
:10577000010807FB08E64FF0000EA6FB028CE6FBD3
:1057800003CEDCF1000CCEF1004E38BFAEF1010EBD
:10579000A6FB0C584FF000074FF00005E6FB0E8704
:1057A000A1FB08C6A0FB07CE16EB0E0645F10005CF
:1057B000E1FB076515F1E04E7EBFA4F580345FEA9A
:1057C00046066D4116F1800745F100054FEA17279F
:1057D0004FEA066647EA0567A6F1DE46B6F1805F46
:1057E0004FEA15251FD9384624F0010C05EBC4718A
:1057F000BCF1FE6F01EB0C1102D8F0BCBDE80081DA
:1058000024425CBF01F5801E9EEAC47F02D4F0BC36
:10581000BDE80081244238D4F0BCA1F1C041BDE80C
:10582000004100F02DBA4FEAD22242EA43524FEA39
:10583000D323A7FB02864FEAD02040EA415007FB62
:1058400003661EEA0E0F4FEAD12105FB026658BF20
:10585000A6EB0056B6EB00564FEA520E4EEAC37E58
:1058600018EB0E0E56EB530EBDD518EB02085E4139
:105870007F1C55F10005B6E74FF480154FF0000787
:105880004FF000064FF00008ADE7F0BC4FF000000D
:1058900001F1C04101F00041BDE8008111EA0C1F97
:1058A0000CEA131500D00CE013EA0C1F00F0258061
:1058B0004FF00000F0BC81EA030101F00041BDE8B7
:1058C0000081F0BCBDE8004181EA030100F0D8B9D5
:1058D000F0BCBDE8004170B500F084F9097EFC3EE3
:1058E00000F007B881EA03014FF0000001F0004129
:1058F000704781EA030100F0C3B9F0BCBDE8004184
:105900004FF0000021497047FFFDFBF9F7F5F4F275
:10591000F0EEEDEBE9E8E6E4E3E1E0DEDDDBDAD84A
:10592000D7D5D4D3D1D0CFCDCCCBCAC8C7C6C5C4A8
:10593000C2C1C0BFBEBDBCBBBAB9B8B7B6B5B4B3BF
:10594000B2B1B0AFAEADACABAAA9A8A8A7A6A5A4AA
:10595000A3A3A2A1A09F9F9E9D9C9C9B9A9999986E
:105960009797969595949393929191908F8F8E8E11
:105970008D8C8C8B8B8A898988888787868585849E
:1059800084838382828181800000FF070000F87F8A
:105990004FEA1153A3F58063D3F11E03A8BFD3F1DF
:1059A000200C08DB4FF0004242EAC12252EA50527A
:1059B00032FA03F0704709420BD4102BC4BF002009
:1059C000704703F5787CBCF1FF3F05D04FF0FF3006
:1059D00070474FF00000704770B500F003F900BF4A
:1059E0004992248000207047F0E710F0004248BF41
:1059F0004042B0FA80F310FA03F10AD0C3F11D035C
:105A000003F580634FEA415002EB035202EBD121D0
:105A100070474FF00000704751EA030C17D41CF593
:105A2000801F58BFBCF5801F00F10680994218BF47
:105A3000704708BF9042704707D711F5801F58BFC5
:105A400013F5801F19D499427047894270471CF59D
:105A5000801F08D5BCF5801FF7D58B4218BF704753
:105A600008BF824270474FF4001C1CEB410F38BF47
:105A70001CEB430F01D28B42704770B500F0B2F8B7
:105A8000922449004FF000514FF08053FFF71CBEA5
:105A9000DFF848C170B51CEA111E1EBF1CEA1315C1
:105AA0009EEA0C0F95EA0C0F00F06F8081EA030468
:105AB00023EA4C134EEAD47E21EA4C1141F48011C2
:105AC00043F48013AE44A1FB024CA0FB0365AEF18E
:105AD0007F7E361955EB0C05A1FB034C4CF10003FE
